:020000040800F2
:1000000068080020ED0100088B2D0008CD1E0008B7
:10001000872D0008511900089B3F000800000000D0
:100020000000000000000000000000002D32000869
:100030003D1B000800000000FD2D0008AD33000846
:10004000070200080702000807020008070200086C
:10005000070200080702000807020008070200085C
:10006000070200080702000807020008070200084C
:10007000070200080702000807020008070200083C
:10008000070200080702000807020008070200082C
:10009000070200080702000807020008070200081C
:1000A000070200080702000807020008070200080C
:1000B00007020008513600086936000807020008E8
:1000C00007020008070200080702000807020008EC
:1000D000070200089D3D000807020008070200080B
:1000E000411B000807020008070200080702000879
:1000F00007020008070200080702000807020008BC
:1001000007020008070200080702000807020008AB
:10011000070200080702000807020008070200089B
:10012000070200080702000807020008070200088B
:1001300000F002F800F04AF80AA090E8000C8244AF
:100140008344AAF10107DA4501D100F03FF8AFF28C
:10015000090EBAE80F0013F0010F18BFFB1A43F0A5
:1001600001031847D0900000F0900000103A24BF1F
:1001700078C878C1FAD8520724BF30C830C144BF0C
:1001800004680C607047000000230024002500264E
:10019000103A28BF78C1FBD8520728BF30C148BFEA
:1001A0000B607047662908F05E80642900F070805B
:1001B000002070471FB500F085FC040000200021DE
:1001C00006F040FFE0601FBD10B510BD00F0C2FD9D
:1001D0001146FFF7EFFF05F0C7FD00F0E0FD03B4A7
:1001E000FFF7F2FF03BC03F05EFF00000948804701
:1001F00009480047FEE7FEE7FEE7FEE7FEE7FEE709
:10020000FEE7FEE7FEE7FEE704480549054A064B20
:1002100070470000B1330008310100086802002077
:10022000680800206804002068040020704710B5AA
:100230004C1084EA530404D54042C1F1000138BF98
:10024000491E1B4204D55242C3F1000338BF5B1E56
:1002500000F019F914F0804F04D04042C1F10001C0
:1002600038BF491E14F0004F04D05242C3F10003BE
:1002700038BF5B1E10BD00000FB4044910B503AABF
:10028000029800F0EBFB10BC5DF814FB300000207E
:100290002DE9F0410646002410687529314616A55F
:1002A00010D0AFF30080002802DA404213A507E027
:1002B00031688A0701D512A502E0490704D511A5C6
:1002C000012401E0AFF3008000210A2206F1240797
:1002D00009E0B0FBF2FCB0FBF2F302FB1C00303093
:1002E00078541846491C0028F3D123462A46304644
:1002F000BDE8F04100F049B9000000002D00000009
:100300002B000000200000002DE9F0474FF0000A0C
:1003100089460446C0F820A02046E16888470028A6
:1003200076D0252806D0D4E901219047206A401CC8
:100330002062F1E7E168204600258847C4F81CA048
:1003400006460027C4F818A02A2E09D0304603F02C
:10035000A3FE38B304EB8708303EC8F8186019E0F4
:1003600059F8041B204604EB87029161E168884735
:10037000012F064618D1E069002820DA25F0200573
:100380001DE0D8F8180000EB800006EB4000303884
:10039000C8F818002046E1688847064603F07CFE4E
:1003A0000028EED1012F0AD02E2E08D12046E16878
:1003B00088477F1C0646022F45F02005C4DBA06954
:1003C000002803DA404245F00105A061E80701D0AA
:1003D00025F01005B6B1A6F14100192802D8203643
:1003E00045F400654A463146204625604D46FFF7F4
:1003F000D9FE58B1012806D0ED1D25F0070000F107
:10040000080989E704E005F1040985E730468AE731
:10041000206ABDE8F08740EA010310B59B070FD1C1
:10042000042A0DD310C808C9121F9C42F8D020BA64
:1004300019BA884201D9012010BD4FF0FF3010BD1C
:100440001AB1D30703D0521C07E0002010BD10F8EA
:10045000013B11F8014B1B1B07D110F8013B11F8B0
:10046000014B1B1B01D1921EF1D1184610BD02F0A9
:10047000FF0343EA032242EA024200F003BB704753
:1004800070477047704753EA020C00F069802DE90D
:10049000F04B4FF00006002B1FBFB3FA83F503FAB1
:1004A00005F424FA05F65E4012BF1643B2FA82F54F
:1004B00002FA05F4C5F120051EBF22FA05FC44EA44
:1004C0000C04203556EA044C4FEA144418BF641C4F
:1004D0004FF000084FF00009904271EB030C39D344
:1004E000002919BFB1FA81F701FA07F6B0FA80F7CF
:1004F00000FA07F6C7F120071EBF20FA07FC46EAFC
:100500000C062037B6FBF4FCA7EB0507103F07F0FD
:100510001F0BCBF120060CFA0BFB2CFA06F644BF9E
:10052000B3460026202FA4BF5E464FF0000B5BEAC7
:10053000060C08BF4FF0010B19EB0B09ABFB027C5B
:1005400048EB0608C01B06FB02CC0BFB03CC71EB8F
:100550000C01C1E70B46024641464846BDE8F08B18
:1005600013B54FF000004FF00001AFF30080BDE87D
:100570001C40704710B500F0A9FA006810BD10B516
:10058000044600F0A3FA046010BD2DE9F0470D46C3
:1005900099469246044600F124080168880604D56D
:1005A000E06921F01001216000E00120A84201DD96
:1005B000471B00E00027A1697A1902EB0900081A1D
:1005C000A0612078C00602D42046AFF30080002648
:1005D00008E0D4E901211AF806009047206A401C7F
:1005E000761C20624E45F4DB2078C0060AD52046F2
:1005F000AFF3008006E0D4E9012130209047206A63
:10060000401C2062381EA7F10107F4DC07E0D4E9A2
:10061000012118F805009047206A401C2062281E1E
:10062000A5F10105F3DC2046AFF300802078000639
:1006300002D50220BDE8F0870120FBE770472DE9D5
:10064000FF4F0C461E464FF0FF378BB0D2E900013A
:10065000DDF860800A908A46C1F30A5505B93D4627
:10066000002108464FF00000BAF1000F00F44000EE
:1006700005DA00EB80004FF4400101EA50004FEA38
:100680009059B9F1010F00DDB9460A9850EA4A00C5
:100690000ED044F61050A5F2FF3545432F14B8F1A3
:1006A000000F1ED07542291E1EDDC9F100021CE09C
:1006B000B8F1010F4FF0000001D0302103E0F24308
:1006C00005E02154401CB042FBDB304600220021F3
:1006D00021540B99C1F80880C1E900200FB0BDE892
:1006E000F08FBD1B6D1CDEE74A4600DA694206A8A2
:1006F00000F08EFA06AB93E8070003AB83E807002F
:1007000050460A9900F094FB8DE80700A0F50050D0
:100710001F3800900398002D0ADD42F21F014A465F
:100720000844002303A90390684600F0FDFD09E09A
:10073000A0F500504A461F38002303A903906846DD
:1007400000F007FE8DE807000004000C03D04FF016
:10075000FF30410800E01046B8F1000F03D000223E
:10076000009215461EE0751E05D400F0B3F9303234
:1007700062556D1EF9D5B3460122084302D000220E
:100780007F1C04E02078302801D100227F1E002A3F
:10079000099784D01DE0112D07DA00F09BF9303263
:1007A00062556D1C50EA0102F5D1084302D0009851
:1007B000C8B10EE00021681E05E0235C625C635452
:1007C0002254401E491C8142F7DBAB46A81B401E49
:1007D0000990002004F80B000B98099AC0F80880D3
:1007E000C0E9002B7AE711264FF0000857E72DE902
:1007F000F04F88460446D21D22F0070191B0D1E99E
:100800000001CDE90A0103F0CAFB02460B98C00FB4
:1008100001D02D2007E02068810701D52B2002E0C0
:10082000202101EAC000032A099001D0072A05DB34
:1008300003464146204600F0ABF90BE120788006E4
:1008400001D5E06900E00620B8F1650F814606D0C9
:10085000B8F1660F18D0B8F1670F70D131E0002001
:10086000B9F1110F009001DB112301E009F101033F
:100870000AAA01A90CA8FFF7E2FEDDE90C70002628
:1008800009F10105834647E001204B4600904FF0F7
:1008900000470AAA01A90CA8FFF7D1FEDDE90DB0B7
:1008A0000C995D46002610B909F101000D18B9EB4D
:1008B000050003D4C0F1FF3609F10105A5EB0900DD
:1008C0002BE0B9F1010F01DA4FF001090020B9F175
:1008D000110F0090484601DD112300E003460AAAEB
:1008E00001A90CA8FFF7ABFEDDE90C704D46002610
:1008F0008346207800070AD4AB4500DA5D4601A89C
:10090000012D04DD411911F8011C302907D04F4594
:1009100002DA17F1040F04DA012082460FE06D1E9F
:10092000EEE7002F02DCED1B3E4403E0781CA842FA
:1009300000DD7D1CB81B00F1010A4FF00047207854
:10094000000703D4AA4501DB4FF0FF3A0021B7F1BD
:10095000004F0DF143088DF8431024D002202B23C3
:10096000002F01DA7F422D230A21021EA0F101008F
:1009700000DC5FB197FBF1FC97FBF1F201FB1C7C03
:1009800017460CF1300C08F801CDEEE7A8F1010094
:1009900003702188090501D5452100E06521A0F1FA
:1009A000010800F8011C09980FA9A1EB0807FF1D19
:1009B00000B10120411901EBEA70A1693844081A1D
:1009C000401EA0612078C00602D42046AFF300800C
:1009D000099828B1D4E901219047206A401C20627F
:1009E0002078C00622D52046AFF300801EE0002EFE
:1009F00004DBB34502DD01A8805D00E03020D4E9CE
:100A000001219047206A401C2062761CAAF1010057
:100A10005FEA000A0AD100F055F8C0680168405C3E
:100A2000D4E901219047206A401C2062281EA5F1CC
:100A30000105DCDC07E0D4E9012118F8010B90473F
:100A4000206A401C2062381EA7F10107F3DC204613
:100A5000AFF30080032011B041E60000074B70B5F2
:100A60000D467B4400F081F80446284600F042F928
:100A700010B14FF0FF3070BD204670BD634B0000D9
:100A80004FF000020429C0F0128010F0030C00F0B7
:100A90003781CCF1040CBCF1020F18BF00F8012B18
:100AA000A8BF20F8022BA1EB0C0100F029B95FEAE6
:100AB000C17C24BF00F8012B00F8012B48BF00F8CF
:100AC000012B7047004870472402002000487047FF
:100AD0000402002030B5B0F10A024FEA900E71F125
:100AE00000034EEA817EB0EB0E0061EB91014FEA0C
:100AF000101E4EEA017E10EB0E0041EB11114FEA81
:100B0000102E4EEA016E10EB0E0041EB11214FEA60
:100B1000104E4EEA014E10EB0E0041EB1141401811
:100B200041F100014FEAD00040EA41704FEAD101A3
:100B300010EB80054FEA810444EA907444EB010411
:100B40006D1944EB0404521BA3414FF0000348BF4E
:100B50000A3200D530BD401C41F1000130BD00001B
:100B600001694A1C02610878704700B58FB0CDE971
:100B700001310021059105497944CDE90310114661
:100B80006846FFF7C1FB0FB000BD0000E5FFFFFFA7
:100B90002DE9F0411F46044603260168072A01F4A7
:100BA000006004DB08B116A505E016A503E008B156
:100BB00015A500E015A521F010002060A069C01E59
:100BC000A0610FB1401EA0612046AFF300804FB17D
:100BD000D4E9012138469047206A401C2062C01C9D
:100BE000206206E0206AFAE7D4E9012115F8010B3A
:100BF0009047761EF8D22046AFF30080BDE8F08122
:100C00004E414E006E616E00494E4600696E6600B0
:100C10002DE9F047814616468AB0354878440DC81C
:100C20008DE80D0032487844801C03AC0DC884E880
:100C30000D0041F69B300844372190FBF1F290FB08
:100C4000F1F5A5F1800501FB12041B3C02D56442BD
:100C5000012000E00020DFF898A080460027FA4439
:100C6000AAF1BE0A0EE0E0070AD03246684607EB5A
:100C7000470101230AEB810100F06BFB8DE80700BF
:100C800064107F1C002CEED1194F7F44AE3F19E059
:100C9000E80715D007EB04100DF1180A90E80E00D4
:100CA0008AE80E00C068F04201D1981908903246D7
:100CB000012306A903A800F04CFB03AB83E807005F
:100CC0006D10641C002DE3D14FF0010332466946DC
:100CD000B8F1000F03A802D000F026FB01E000F0FD
:100CE00038FBC9E90001C9F808200AB0BDE8F0875F
:100CF000AC850000007B00F0800070474FF00002E0
:100D000000B5134694469646203922BFA0E80C5001
:100D1000A0E80C50B1F12001BFF4F7AF090728BFDC
:100D2000A0E80C5048BF0CC05DF804EB890028BF58
:100D300040F8042B08BF704748BF20F8022B11F081
:100D4000804F18BF00F8012B704700000048704723
:100D5000040200207546FFF7F9FFAE46050069461C
:100D6000534620F00700854618B020B5FFF74CFA2F
:100D7000BDE820404FF000064FF000074FF000089C
:100D80004FF0000B21F00701AC46ACE8C009ACE81D
:100D9000C009ACE8C009ACE8C0098D46704710B581
:100DA0000446AFF300802046BDE81040FFF717BAB5
:100DB0004FF0013C50F8042B51F8043B9A4221D1EA
:100DC000A2EB0C03934313EACC1317D150F8042B76
:100DD00051F8043B9A4215D1A2EB0C03934313EA5A
:100DE000CC130BD150F8042B51F8043B9A4209D193
:100DF000A2EB0C03934313EACC13DBD04FF00000BB
:100E0000704700BFD01A01BAB1FA81F101F01801A0
:100E100022FA01F0CB40C1F12001DBB2C0B2C01A0E
:100E20002CFA01F3D11A914311EAC311E6D17047AC
:100E30005FEA400C08BF91F0000F4FEA8C234FEAA5
:100E4000C12243EA51514FEA1C5018BF00F5F0404F
:100E50004FEA300018BF41F000415FEA6C5C00F0DF
:100E60002980BCF1FF3F08BF40F080407047130C61
:100E700006BF12044FF0100C4FF0000C130E04BF0D
:100E800012020CF1080C130F04BF12010CF1040C38
:100E9000930F04BF92000CF1020CD30F04BF520059
:100EA0000CF1010C11464FF00002A0F11F00A0EB65
:100EB0000C00704711F0004F08BF704731F000413F
:100EC0003FF4D5AF0B0C06BF09044FF0100C4FF0E8
:100ED000000C0B0E04BF09020CF1080C0B0F04BF31
:100EE00009010CF1040C8B0F04BF89000CF1020CFA
:100EF000CB0F04BF49000CF1010CCCF12003A0EB97
:100F00000C0022FA03F302FA0CF241EA030100F1A9
:100F10000100704720F07F4C80EA030023F07F47F8
:100F2000ACEB070303F57C5300F0004003F1FF0333
:100F30002DE980494FEA154B09B44FEA144325EADD
:100F40000B4E24EA03480FF2042606EB1327490848
:100F50003E785FEA320203FB0667C7F5000707FB2E
:100F600006F64FEA54374FEAD64606F1020607FB6B
:100F7000066CCCF1005C4FEA1C472CEA074C07FBDF
:100F800006F40CFB06F504EB15464FEA961634BF43
:100F900000204FF000404FEAD13706FB07FC4FEA34
:100FA0001C4C0CFB0BF7D21B03FB0CF761EB07018E
:100FB0000CFB0EF7B0EB074072EB17420CFB08F787
:100FC00034BFA2EB0742B2EB074261EB17414FEA95
:100FD0000C444FEA910706FB07FC4FEA1C4C0CFB44
:100FE0000BF7B0EBC74072EB573203FB0CF734BF83
:100FF000A2EBC742B2EBC74261EB57310CFB0EF7D5
:10100000B0EBC70072EB57720CFB08F734BFA2EBD2
:10101000C702B2EBC70261EB5771039F4FEA8161D0
:1010200041EA921104EBCC044FEAD1374FEA8262D5
:1010300006FB07FC42EA90124FEA80604FEA1C4C24
:101040000CFB0BF7D21B03FB0CF761EB07010CFB4E
:101050000EF7B0EB074072EB17420CFB08F734BFFA
:10106000A2EB0742B2EB074261EB17414FEA8C5506
:101070004FEA910704EB9C2406FB07FC4FEA1C4C4B
:101080000CFB0BF7B0EBC74072EB573203FB0CF7CE
:1010900034BFA2EBC742B2EBC74261EB57310CFB46
:1010A0000EF7B0EBC70072EB57720CFB08F734BFBA
:1010B000A2EBC702B2EBC70261EB577115EB4C25EF
:1010C0004FEA816141EA92114FEA82624FEAD137D9
:1010D00042EA901206FB07FC44F100044FEA8060EC
:1010E0004FEA1C4C0CFB0BF7D21B03FB0CF761EB1C
:1010F00007010CFB0EF7B0EB074072EB17420CFB3D
:1011000008F734BFA2EB0742B2EB074261EB17418D
:1011100015EB1C154FEA813141EA92414FEA8232C8
:1011200042EA90424FEA80304FEA0C7644F10004E4
:1011300048EA03434EEA0B484FF0000EB2EB080CAE
:1011400071EB030724BF624639464EEB0E0E4FF09B
:10115000000B0018524149414BEB0B0BB2EB080C52
:1011600071EB03077BF1000B24BF624639464EEB5F
:101170000E0E4FF0000B0018524149414BEB0B0B88
:10118000B2EB080C71EB03077BF1000B24BF624646
:1011900039464EEB0E0E51EA020718BF46F0010623
:1011A00016EB0E7655F1000254F1000103D5BDE8AF
:1011B0008901BDE80088BDE88901BDE80048B6198D
:1011C000524141EB0101A3F10103704780807F7E12
:1011D0007D7C7B7A797877767675747372717170AD
:1011E0006F6E6E6D6C6C6B6A6A696868676666655F
:1011F0006464636362616160605F5F5E5E5D5D5CED
:101200005C5B5B5A5A59595858575756565555555D
:101210005454535352525251515050504F4F4F4EBD
:101220004E4D4D4D4C4C4C4B4B4B4A4A4A4949490B
:10123000484848474747474646464545454444444D
:10124000444343434342424242414141002B9C4676
:1012500030D477002BD01CB54FEA370703B44FF0DA
:1012600010004FF01001BAF1000F06D0BCF1000FD2
:10127000DCBF40F0080040F008014FF000000FBC58
:10128000BDE810400BF1010BBBF1010F08BF5FEA95
:10129000170722BF12F1010211F101014FF00041C5
:1012A00043F1000300F0004043EA00007047F9D327
:1012B0005708D0E746EA064613F1400F4FEA1646B4
:1012C0001FDD13F1200FDFBF16430A460021203334
:1012D0005B42BED0C3F1200746EA064602FA07F792
:1012E0004FEA164646EA0706C3F1200722FA03F240
:1012F00001FA07F721FA03F14FF0000342EA07026F
:10130000A7E746EA020646EA06464FEA164646EAD6
:101310000106BCBF46EA0646360C4FF000034FF00C
:1013200000024FF0000194E72DE9804C9A46934665
:1013300070B491E8380007C831EA400C48BF34EA7D
:10134000430C03D5FFF7E6FDFFF780FFF0BCBDE8D7
:10135000008C2DE9804C9A46934670B491E8380091
:1013600007C810F0804F08BF13F0804F03D100F082
:1013700005F8FFF76BFFF0BCBDE8008C20F07F475D
:1013800080EA030023F07F4C07EB0C03A3F57C53AA
:1013900000F00040A3F1FE0392F0000F00F0B380D4
:1013A00095F0000F00F077802DE901494FEA1140D8
:1013B0004FEA144621EA004800FB06FC24EA0647EF
:1013C00008FB06F607FB08F800FB07F718EB0648D2
:1013D0004CEB164C4FEA124B18EB07484FEA1546F8
:1013E0004CEB174022EA0B4E0BFB06FC25EA0647A6
:1013F0000EFB06F607FB0EFE0BFB07F71EEB064E79
:101400004CEB164C4FF000061EEB074E4CEB174B07
:1014100018EB0B0840F1000018EB0E0B58EB00081E
:1014200040F100008F1A4FF000013CBFC943661B1A
:1014300014BFB5EB040C00213CBFC943F61B4FEAB7
:1014400017444EEA8E0E27EA04454FEA1C4704FB78
:1014500007622CEA074C05FB07F70CFB05F604FBBB
:101460000CFC16EB074642EB174216EB0C4642EB20
:101470001C421BEB060658EB0202414146EA9E065F
:1014800001D5BDE80189B619524141EB0101A3F133
:101490000103BDE801894FEA14454FEA114724EAE8
:1014A000054621EA074C05FB07F406FB07F70CFB92
:1014B00006F105FB0CFC11EB074144EB17444FEA26
:1014C000124711EB0C4144EB1C4422EA074C05FB8C
:1014D00007F206FB07F70CFB06F605FB0CFC16EB08
:1014E000074642EB174216EB0C4642EB1C456A18C6
:1014F00054F1000148BF7047B619524141EB010158
:10150000A3F10103704795F0000F37D04FEA114265
:101510004FEA144721EA024624EA074C02FB07F18E
:1015200006FB07F70CFB06F402FB0CFC14EB07446C
:1015300041EB17414FEA154714EB0C4441EB1C41BA
:1015400025EA074C02FB07F506FB07F70CFB06F63E
:1015500002FB0CFC16EB074645EB174516EB0C4659
:1015600045EB1C42121951F1000148BF7047B619F2
:10157000524141EB0101A3F1010370474FEA1445C9
:101580004FEA114724EA054621EA074C05FB07F11B
:1015900006FB07F70CFB06F24FF0000605FB0CFC00
:1015A00012EB074241EB174112EB0C4251EB1C418D
:1015B00048BF7047921841EB0101A3F10103704746
:1015C00021B1826842F00102826003E0826822F069
:1015D000010282607047000010B504461248844240
:1015E00008D10121401501F047FC0021601501F0F0
:1015F00043FC17E00D48844208D10121001501F099
:101600003BFC0021201501F037FC0BE00848844228
:1016100008D10121C80301F02FFC00214FF4004044
:1016200001F02AFC10BD0000002401400028014008
:10163000003C0140014600208A6802F004020AB121
:10164000012000E0002070470146C86C80B270475E
:101650000246002013680B400BB1012000E000207F
:101660007047014600208A6802F008020AB1012092
:1016700000E000207047000030B502460020002343
:1016800050680F4C20400D790C6844EA0524204333
:10169000506090680B4C2040D1E902542C434D79A6
:1016A00044EA450420439060D06A20F470000C7C2A
:1016B000641EE4B2234340EA0350D06230BD000010
:1016C000FFFEF0FFFDF7F1FFF0B504460D460020E8
:1016D0000021092D11DDE068A5F10A0606EB460799
:1016E000072606FA07F18843A5F10A0606EB460627
:1016F00003FA06F10843E0600CE0206905EB4507BA
:10170000072606FA07F1884305EB450603FA06F1BA
:1017100008432061072A0FDA606B561E06EB860726
:101720001F2606FA07F18843561E06EB860605FAC1
:1017300006F10843606322E00D2A0FDA206BD61F02
:1017400006EB86071F2606FA07F18843D61F06EB2D
:10175000860605FA06F10843206310E0E06AA2F16C
:101760000D0606EB86071F2606FA07F18843A2F14D
:101770000D0606EB860605FA06F10843E062F0BDA9
:10178000816841F008018160704721B1826842F4AC
:10179000A002826003E0826822F4A00282607047A7
:1017A000816841F0040181607047000008B50121A3
:1017B000102001F051FB4FF47070ADF800001820BC
:1017C0008DF8030003208DF802006946014800F0FF
:1017D000D1FA08BD0010014030B587B005460C466F
:1017E0000121480301F038FB254801F073FF681E12
:1017F00080B2ADF81400ADF810400020ADF816002E
:10180000ADF8120004A91E4802F06CFA6020ADF891
:1018100000000120ADF802000020ADF80600ADF890
:1018200008006946164802F0D3F86946144802F0E9
:1018300025F96946124802F081F96946104802F01C
:10184000D7F901210E4801F036FF08210C4802F0BB
:101850000BF908210A4802F063F90821084802F050
:10186000BDF90821064802F001FA0121044801F0FF
:1018700007FF0121024801F012FF07B030BD000050
:101880000034014070B504464FF47A7507230122F5
:1018900021460B48FFF718FF01210948FFF775FFA4
:1018A00000BF02210648FFF7D3FE20B9281EA5F18C
:1018B00001018DB2F5D10248FFF7C6FE70BD0000F0
:1018C0000024014000B587B001214FF4017001F000
:1018D000C3FA4FF4004001F093FA2020ADF8040061
:1018E00000208DF8070001A9174800F043FA1748B7
:1018F000FFF772FE002002908DF80C008DF80D00AD
:101900004FF4602004900020059001208DF818000D
:1019100002A90E48FFF7B0FE01210C48FFF750FE68
:101920000A48FFF72DFF00BF0848FFF79AFE00287E
:10193000FAD10648FFF734FF00BF0448FFF77AFEEC
:101940000028FAD107B000BD000801400024014082
:1019500000BFFEE72DE9F04F8BB083468A46204852
:101960000A90504606F0E0F81E4A1F4BCDE90001F0
:1019700005F000FE804689461C48006806F0D4F851
:1019800042464B46CDE9020105F0A4FBCDE9040136
:101990004FF07E500A9906F0F1FB804606F0C4F83D
:1019A0000646DDE9042305F0E5FD04460D465846EC
:1019B0000A9906F0E5FA064606F0B6F822462B46E6
:1019C000CDE9060105F086FBCDE9080105F050FBE5
:1019D00006490860084600680BB0BDE8F08F0000BB
:1019E0000AD7A33C7B14AE47E17A743F7400002011
:1019F0002DE9F04F8BB083468A4620480A90504626
:101A000006F092F81E4A1F4BCDE9000105F0B2FD29
:101A1000804689461C48006806F086F842464B46D8
:101A2000CDE9020105F056FBCDE904014FF07E50EF
:101A30000A9906F0A3FB804606F076F80646DDE933
:101A4000042305F097FD04460D4658460A9906F012
:101A500097FA064606F068F822462B46CDE90601BD
:101A600005F038FBCDE9080105F002FB06490860E6
:101A7000084600680BB0BDE8F08F00000AD7A33C11
:101A80007B14AE47E17A743F7800002001460723BB
:101A900023EA01021202054B18684FF6FF031840B3
:101AA000034B18431043014B186070470CED00E0E6
:101AB0000000FA0538B5002000906B460122752120
:101AC000682004F0ABF89DF8000068280ED000BF35
:101AD0001748006800F4E06016490843001D1449E7
:101AE0000860BFF34F8F00BF00BFFEE704F090FA1D
:101AF000E0B9782005F096F8782004F077F9C8204E
:101B000005F042F803F0FCF80B4804F0F2F8044644
:101B100003F050FB40F2731002F09AFFC82003F06C
:101B200079FA05F088F9012004F02AFF38BD000099
:101B30000CED00E00000FA05640000207047000092
:101B400010B50648006840B94FF480500449086059
:101B5000012000F0DBFE0349086010BD3001214286
:101B60001404014000000020002123498279002A4A
:101B70003AD00A46126803689A430B461A600A1D57
:101B8000126803689A430B1D1A60027911440A68AF
:101B900003681A430A60184A0832126803689A43B5
:101BA000154B08331A601A1D126803689A43124BCA
:101BB0000C331A604279102A0ED11A1F126803687A
:101BC0001A430D4B08331A601A1D126803681A4332
:101BD000094B0C331A600DE00749427911440A6839
:101BE00003681A430A6005E0027911440A68036831
:101BF0009A430A60704700000004014000B587B0B6
:101C00000121022001F008F90121042001F024F94A
:101C1000C020ADF8000004208DF8030069461C4880
:101C200000F0A8F804A802F0AFF80020ADF810000A
:101C30004FF6FF70ADF814000020ADF81600ADF8B7
:101C4000120004A9134802F04DF800231A4603219C
:101C5000104801F033FE01A801F0A8FE0A20ADF8FB
:101C60000C0001A90B4801F04BFE0121094801F0CD
:101C700013FD01221146074801F0A1FE002105488D
:101C800002F001F80121034801F009FD07B000BD91
:101C9000000801400004004000B587B00121042085
:101CA00001F0BAF80121082001F0D6F8C020ADF803
:101CB000000004208DF8030069461C4800F05AF823
:101CC00004A802F061F80020ADF810004FF6FF7094
:101CD000ADF814000020ADF81600ADF8120004A90C
:101CE000134801F0FFFF00231A460321104801F0BA
:101CF000E5FD01A801F05AFE0A20ADF80C0001A98B
:101D00000B4801F0FDFD0121094801F0C5FC01224D
:101D10001146074801F053FE0021054801F0B3FFCA
:101D20000121034801F0BBFC07B000BD000C0140DD
:101D30000008004030B500228B071C0F0F2303FA68
:101D400004F20B4B8C1053F824309343084C8D1045
:101D500044F8253023468C1053F824308C07240F88
:101D600000FA04F42343024C8D1044F8253030BDB2
:101D7000080001402DE9F041024600250026002020
:101D800000230024002791F803C00CF00F0591F800
:101D900003C00CF0100CBCF1000F03D091F802C08E
:101DA0004CEA050591F800C0BCF1000F31D0146871
:101DB00000202BE04FF0010C0CFA00F3B1F800C04A
:101DC0000CEA03069E4220D183004FF00F0C0CFA60
:101DD00003F7BC4305FA03FC4CEA040491F803C082
:101DE000BCF1280F06D14FF0010C0CFA00FCC2F830
:101DF00014C00AE091F803C0BCF1480F05D14FF0C0
:101E0000010C0CFA00FCC2F810C0401C0828D1D309
:101E10001460B1F800C0BCF1FF0F34DD546800203D
:101E20002EE000F1080C4FF0010808FA0CF3B1F8AD
:101E300000C00CEA03069E4221D183004FF00F0C34
:101E40000CFA03F7BC4305FA03FC4CEA040491F8CE
:101E500003C0BCF1280F05D100F1080C08FA0CF8FA
:101E6000C2F8148091F803C0BCF1480F07D100F10B
:101E7000080C4FF0010808FA0CF8C2F81080401C5A
:101E80000828CED35460BDE8F081000010B500F002
:101E90000BF804460349204606F072F80446204633
:101EA00010BD0000C3F5804070B50520FFF7EAFCC7
:101EB0000546284606F01CF80646034906F060F879
:101EC0000446204670BD00003333533A00BFFEE79E
:101ED00070B505460E46002400F0EAF8284600F0EA
:101EE000B5F8641C00F03CF9304600F0AFF8641C13
:101EF00000F036F900F0DCF8691CC8B200F0A6F872
:101F0000641C00F02DF9002000F068F8044600F091
:101F100003F9204670BD000010B500200E4908608E
:101F20000E48006820F470600C490860084600689C
:101F300040F44070086000200949C1F8A801012060
:101F400002F04AFD01200449086002F045FD00202E
:101F50000349C1F8AC0110BDAC812142040C014021
:101F60000080214208B50121082000F075FF4FF4E0
:101F70004060ADF8000010208DF8030003208DF8BC
:101F8000020069460148FFF7F5FE08BD000C01405C
:101F900010B500200E4908600E48006820F47060FB
:101FA0000C4908600846006840F440700860012051
:101FB0000949C1F8A80102F00FFD01200449086099
:101FC00002F00AFD00200449C1F8AC0110BD000078
:101FD000AC812142040C01400080214270B50546CD
:101FE00000241748006820F470601549086008460E
:101FF000006840F400600860002616E000201149E7
:102000000860022002F0E8FC01200F49C1F8AC0191
:102010006006040E0B488438006808B1601CC4B226
:10202000022002F0D9FC701CC6B2082EE6DB15B106
:10203000FFF772FF01E0FFF7ABFF204670BD000025
:10204000040C0140AC8121420080214270B504465D
:102050001448006820F4706012490860084600685F
:1020600040F44070086000200F490860002516E029
:10207000E0090D49091F08606006040E012002F006
:10208000ABFC01200949C1F8AC0102F0A5FC00201D
:1020900005490860012002F09FFC681CC5B2082DAC
:1020A000E6DB70BD040C0140AC812142008021427E
:1020B00010B51648006820F470601449086008469E
:1020C000006840F440700860012011490860114820
:1020D000D0F8280108B9002010BD01200C49091DC5
:1020E000086002F079FC00200A49C1F8A8010848FC
:1020F0008038006808B10020EEE7012002F06CFC97
:1021000000200349091D08600120E5E7040C014097
:10211000A88121420080214210B50E48006820F4B9
:1021200070600C4908600846006840F44070086020
:102130000020094908600949C1F8A801012002F0FE
:102140004BFC0120044908600449C1F8A80102F0D1
:1021500043FC10BD040C0140AC81214200802142AF
:1021600010B500241548006820F470601349086019
:102170000846006840F400600860012010490860CB
:1021800002F02AFC01200F49C1F8AC0102F024FC46
:102190000AE0601CC4B2322C03DDFFF7BDFF002053
:1021A00010BD012002F018FC0548803800680028A6
:1021B000EFD10349091D08600120F1E7040C01403B
:1021C000A88121420080214270B505460E46144682
:1021D00031462846FFF77CFE2070012070BDF8B51F
:1021E00006460F4614461D466A4639463046FFF7F6
:1021F000EBFF2DB10120A0409DF80010084305E041
:102200000120A0409DF8001021EA0000C0B200901B
:102210009DF800203946304600F036F8F8BD2DE92B
:10222000F8430746884614461D46089E6A464146BE
:102230003846FFF7C9FF28B3601CFF2101FA00F000
:10224000C4F108012944491EFF220A41104300F04D
:10225000FF09C5F1080006FA00F0C6B2C4F1070094
:1022600006419DF8000000EA090000909DF800007A
:10227000304300909DF800204146384600F004F8B5
:10228000BDE8F8830020FBE737B504460D4602ABF6
:1022900001222946204600F001F83EBD2DE9F0411B
:1022A00080460D4616461F460024FFF701FF4046B4
:1022B000FFF7CCFEFFF754FF2846FFF7C7FEFFF7F6
:1022C0004FFF00BF06E0385DFFF7C0FEFFF748FF95
:1022D000601CC4B2B442F6DBFFF71EFF0120BDE86C
:1022E000F081000001464906084A926942F0010265
:1022F000064B9A61064A526822F0E062044B5A602B
:102300001A4652680A435A607047000000100240A3
:10231000000001402DE9F04FADB0044689469246D9
:10232000A3482B90A349D1E90023D1E90201CDE9CB
:102330002723CDE92901CDF898A09E4B1033D3E98E
:102340000021D3E90203CDE92403CDE922219949F3
:10235000203103C9CDE920019649283103C9CDE9CF
:102360001E01944B30330FCB1AAD0FC5914840304E
:10237000006819908F4B4433D3E90020D3E902134E
:1023800016AD0BC515928B49543103C9CDE9130124
:102390000020119012900F9010900B900C900D90C7
:1023A0000E900790089009900A900590069004906E
:1023B000484605F0B9FB0746884684F00040019086
:1023C00005F0B2FB3A464346CDE9020102F00CF9B2
:1023D000054604F04DFE834611A8774922AA012341
:1023E000CDE90021029002221146104604F0C2FC01
:1023F0000FA826A920AA0123CDE9002102901A46A0
:102400001946022004F0B6FC0F99119805F0B8FBAC
:102410006A4908601099129805F0B2FB6749486054
:102420000BA8674922AA0223CDE9002102901A468F
:102430001946184604F09EFC07A815A90BAA02230A
:10244000CDE9002102901A461946184604F092FC84
:102450001A99079805F094FB5A4908601B99089847
:1024600005F08EFB574948601C99099805F088FBD8
:10247000544988601D990A9805F082FB5149C8604B
:1024800005A81EAA0223CDE9002102901A4619468A
:10249000012004F06FFC04A813A905AA0123CDE9CB
:1024A0000021029002221146184604F063FC19999B
:1024B000049805F065FB054629464FF07E5005F06F
:1024C000CDFB049011A813A93E4A0123CDE90021B8
:1024D000029002221146104604F04CFC3A4804A92E
:1024E00011AA0123CDE9002102901A4619460220C3
:1024F00004F040FC04A831491EAA0123CDE90021C3
:10250000029002221146184604F034FC5846049901
:1025100005F034FE049011A804A92B4A0123CDE94B
:10252000002102901A461946022004F023FC234A97
:102530001199106805F024FB1F4908601F4A129981
:10254000506805F01DFB1C4948600BA81EA91E4AD7
:102550000223CDE90021029001221146184604F021
:1025600009FC0B99279805F009FE0B900C99289807
:1025700005F004FE0C900D99299805F0FFFD0D90D3
:1025800027AA0E99D06805F0F9FD0E900C480D4968
:102590000BAA0223CDE9002102901A4619461846DB
:1025A00004F0E8FB044800682DB0BDE8F08F00009F
:1025B0000AD7A33B5C8300087C0000208400002035
:1025C0008C0000208C0100209C0000202DE9F04FA1
:1025D000ADB0044689469246A3482B90A349D1E961
:1025E0000023D1E90201CDE92723CDE92901CDF866
:1025F00098A09E4B1033D3E90021D3E90203CDE923
:102600002403CDE922219949203103C9CDE92001D4
:102610009649283103C9CDE91E01944B30330FCBC5
:102620001AAD0FC591484030006819908F4B443364
:10263000D3E90020D3E9021316AD0BC515928B49DF
:10264000543103C9CDE913010020119012900F906D
:1026500010900B900C900D900E90079008900990A0
:102660000A90059006900490484605F05DFA0746EA
:10267000884684F00040019005F056FA3A464346F9
:10268000CDE9020101F0B0FF054604F0F1FC8346FC
:1026900011A8774922AA0123CDE900210290022244
:1026A0001146104604F066FB0FA826A920AA0123B4
:1026B000CDE9002102901A461946022004F05AFB87
:1026C0000F99119805F05CFA6A4908601099129800
:1026D00005F056FA674948600BA8674922AA022309
:1026E000CDE9002102901A461946184604F042FB33
:1026F00007A815A90BAA0223CDE9002102901A46CA
:102700001946184604F036FB1A99079805F038FA6E
:102710005A4908601B99089805F032FA57494860F1
:102720001C99099805F02CFA544988601D990A985B
:1027300005F026FA5149C86005A81EAA0223CDE972
:10274000002102901A461946012004F013FB04A848
:1027500013A905AA0123CDE9002102900222114606
:10276000184604F007FB1999049805F009FA054684
:1027700029464FF07E5005F071FA049011A813A974
:102780003E4A0123CDE90021029002221146104663
:1027900004F0F0FA3A4804A911AA0123CDE9002176
:1027A00002901A461946022004F0E4FA04A83149BE
:1027B0001EAA0123CDE900210290022211461846EB
:1027C00004F0D8FA5846049905F0D8FC049011A8F2
:1027D00004A92B4A0123CDE9002102901A4619468B
:1027E000022004F0C7FA234A1199106805F0C8F9CD
:1027F0001F4908601F4A1299506805F0C1F91C4929
:1028000048600BA81EA91E4A0223CDE900210290B0
:1028100001221146184604F0ADFA0B99279805F0ED
:10282000ADFC0B900C99289805F0A8FC0C900D9924
:10283000299805F0A3FC0D9027AA0E99D06805F001
:102840009DFC0E900C480D490BAA0223CDE90021F6
:1028500002901A461946184604F08CFA044800689B
:102860002DB0BDE8F08F00000AD7A33BB883000865
:10287000A4000020AC000020B40000209C01002037
:10288000C40000201FB50121084600F0E5FA01212F
:10289000042000F0E1FA4FF48050ADF80C0048201D
:1028A0008DF80F0003A91248FFF764FA0C210020ED
:1028B000FFF740FA4FF48050019000208DF8080097
:1028C0000C208DF8090001208DF80A0001A8FFF7FF
:1028D0004BF928208DF8000002208DF8010001201E
:1028E0008DF802008DF80300684600F04FFA1FBD16
:1028F0000008014010B502F02BF8FFF733FB00F0A1
:10290000F5F9FFF7D7F8FFF7BDFF10BD2DE9F04F40
:1029100093B00446012C04D100F028FB13B0BDE8AD
:10292000F08F4421D020FFF7D3FA83464321D020F3
:10293000FFF7CEFA0BEB0020099005F0C1FA8046B4
:102940004621D020FFF7C4FA83464521D020FFF767
:10295000BFFA0BEB0020099005F0B2FA824648213D
:10296000D020FFF7B5FA83464721D020FFF7B0FA11
:102970000BEB0020099005F0A3FA81463C21D02002
:10298000FFF7A6FA83463B21D020FFF7A1FA0BEB15
:102990000020099005F094FA07463E21D020FFF769
:1029A00097FA83463D21D020FFF792FA0BEB0020E7
:1029B000099005F085FA05464021D020FFF788FAF6
:1029C00083463F21D020FFF783FA0BEB00200990CC
:1029D00005F076FA06464FF08E41404605F09CFB26
:1029E00005D24FF08F41404605F0C8FB80464FF0BE
:1029F0008E41504605F090FB05D24FF08F41504676
:102A000005F0BCFB82464FF08E41484605F084FB42
:102A100005D24FF08F41484605F0B0FB81464FF09C
:102A20008E41384605F078FB05D24FF08F4138468D
:102A300005F0A4FB07464FF08E41284605F06CFBDD
:102A400005D24FF08F41284605F098FB05464FF020
:102A50008E41304605F060FB05D24FF08F41304685
:102A600005F08CFB0646384605F05EF8944A954B17
:102A7000CDE9060104F0EAFBCDE9080104F0F8FA1B
:102A80000E90284605F050F88D4A8E4BCDE9060190
:102A900004F0DCFBCDE9080104F0EAFA0D903046C1
:102AA00005F042F8864A874BCDE9060104F0CEFBDB
:102AB000CDE9080104F0DCFA0C90404605F034F84A
:102AC0004FF06632804BCDE9060104F0BFFBCDE943
:102AD000080104F0CDFA1190504605F025F84FF0AA
:102AE0006632794BCDE9060104F0B0FBCDE908016F
:102AF00004F0BEFA1090484605F016F84FF0663222
:102B0000714BCDE9060104F0A1FBCDE9080104F009
:102B1000AFFA0F90022C4CD1119880F00040024681
:102B20000390DDE90C10FFF7F5FB834604F0FCFF92
:102B3000664A674BCDE9040104F088FB0022654B2F
:102B4000CDE9060104F016FDCDE9080104F090FA84
:102B500061490860109A0C990E98FFF737FD83467B
:102B600004F0E2FF594A5A4BCDE9040104F06EFB30
:102B70000022584BCDE9060104F0FCFCCDE9080128
:102B800004F076FA55490860084600685449086020
:102B90005148006848605348886088F00040C86029
:102BA0000846C0F810A0C0F814908761C56106629D
:102BB000B4E6032C7ED1304604F0B6FFCDE9020125
:102BC000284604F0B1FFCDE90001DDE9022301F060
:102BD0000BFD00223F4BCDE9040104F0CBFC3B4A46
:102BE0003B4BCDE9060104F031FBCDE9080104F0CF
:102BF0003FFA0B90304604F097FFCDE902013846CA
:102C000004F092FFCDE90001DDE9022301F0ECFCC4
:102C10000022304BCDE9040104F0ACFC2B4A2C4BD4
:102C2000CDE9060104F012FBCDE9080104F020FA19
:102C30000A90404604F078FF4FF066322A4BCDE907
:102C4000060104F003FBCDE9080104F011FA834604
:102C500059460B98FEF77EFE80F000401E49086042
:102C6000504604F061FF4FF066321F4BCDE906017C
:102C700004F0ECFACDE9080104F0FAF9834659466C
:102C80000A98FEF7B5FE80F0004014490860084637
:102C9000006813490860104800684860114888605F
:102CA00088F00040C8600846C0F810A0C0F8149032
:102CB000876100E002E0C56106622FE600BF2DE6F5
:102CC0008FC2F5285C1F9A40665E8D40182D4454D3
:102CD000FB210940008066404C0000204800002095
:102CE000D0010020000035436666304010B5022058
:102CF00000F010F8032000F021F8002000F014F894
:102D0000002000F037F8002000F02BF8002000F041
:102D10001FF810BD38B50446032302226B21D020D2
:102D20000094FFF77CFA38BD38B50446022304222C
:102D30001C21D0200094FFF772FA38BD38B5044644
:102D4000022304221B21D0200094FFF768FA38BD2B
:102D500010B50446234601223721D020FFF73FFA61
:102D600010BD10B50446234605226A21D020FFF786
:102D700036FA10BD10B50446234606226B21D0203A
:102D8000FFF72DFA10BD00BFFEE7704770B50021B8
:102D900000230F22C47804B3154C246804F4E064C3
:102DA000C4F5E064210AC1F10403CA40447804FA7E
:102DB00003F184781440214309010E4C0678A15593
:102DC000047804F01F050124AC4005786D11AD00B6
:102DD00005F1E025C5F8004109E0047804F01F057D
:102DE0000124AC40044D0678761145F8264070BDAC
:102DF0000CED00E000E400E080E100E0704700003E
:102E000001460020034A506820F4404008435060C7
:102E1000704700000010024029B1064AD2690243FF
:102E2000044BDA6104E0034AD2698243014BDA6160
:102E3000704700000010024029B1064A126902439F
:102E4000044B1A6104E0034A12698243014B1A6180
:102E5000704700000010024029B1064A92690243FF
:102E6000044B9A6104E0034A92698243014B9A61E0
:102E7000704700000010024029B1064AD2680243A0
:102E8000044BDA6004E0034AD2688243014BDA6003
:102E9000704700000010024030B5002100220024DD
:102EA00000232D4D6D6805F00C0121B1042905D0DA
:102EB000082923D105E0294D056022E0274D056052
:102EC0001FE0254D6D6805F47012234D6D6805F403
:102ED0008034022505EB92421CB9214D5543056013
:102EE0000BE01D4D6D6805F400351DB11C4D5543BB
:102EF000056002E0194D5543056002E0174D05607D
:102F000000BF00BF144D6D6805F0F0010909154DB3
:102F10006B5C0568DD4045600F4D6D6805F4E06150
:102F2000090A104D6B5C4568DD4085600A4D6D688F
:102F300005F46051C90A0B4D6B5C4568DD40C56006
:102F4000054D6D6805F44041890B074D6B5CC56804
:102F5000B5FBF3F5056130BD0010024000127A00A8
:102F600000093D001C0000202C0000202DE9F04F3E
:102F700093B010A8974911AB0CAACDE9001096495F
:102F8000964801F0C9FE9348008800F4807000283C
:102F90007ED00C9804F094FF07464FF09D4104F05A
:102FA0005DFE04460D9804F08BFF07464FF09D41EF
:102FB00004F054FE05460E9804F082FF07464FF0D9
:102FC0009D4104F04BFE06460F9804F079FF07463A
:102FD0004FF09D4104F042FE814621464FF0804073
:102FE00004F0CEFF3146069004F0CAFF294608904F
:102FF0004FF0404004F0C4FF4946069004F0C0FF83
:103000000790089904F0BCFD099004F08DFDCDE90E
:103010000A0101F0A1F882464FF06632704B04F0CD
:10302000A9FA074604F024F86E49086031464FF0CB
:10303000804004F0A5FF3146039004F0A1FF8246D2
:1030400029464FF0404004F09BFF2946039004F0CE
:1030500097FF8346514605F091F880464FF07E5128
:1030600004F08EFD074604F05FFDCDE90601214620
:103070004FF0804004F084FF8346294604F080FF2F
:10308000804631464FF0804004F07AFF834600E0EE
:1030900068E0494604F074FF8246414604F070FD42
:1030A000074604F041FDCDE90401DDE9062301F006
:1030B0009BFA4FF066324A4BCDE9080104F05AFA08
:1030C000CDE90A0103F0D4FF474908604946484664
:1030D00004F056FF31460590304604F051FF294672
:1030E0000390284604F04CFF21460290204604F04D
:1030F00047FF0190029904F043FD8346039905F0D0
:103100003DF80490059905F039F8824604F00CFD6D
:10311000CDE906014946204604F032FF31460590CC
:10312000284604F02DFF0490059904F029FD8346FC
:103130004FF0804104F024FF824604F0F5FC07467E
:10314000DDE9062301F050FA4FF06632244BCDE959
:10315000080104F00FFACDE90A0103F089FF2349C1
:10316000086000BF1F480068214908601E480068C9
:1031700048601E48006888601849B1F9000004F0F2
:103180009FFE1B49C8601549B1F9020004F098FE82
:10319000174908611149B1F9040004F091FE14497E
:1031A00048610D49B1F9000004F08AFE10498861B8
:1031B0000949B1F9020004F083FE0D49C8610649CE
:1031C000B1F9040004F07CFE09490862084613B016
:1031D000BDE8F08F440000203E00002038000020B1
:1031E00066A64C40480000204C0000205000002003
:1031F000AC010020014611B101290FD106E0094AB6
:10320000128810B20022074B1A8009E0064A128881
:1032100012B250420022044B1A8001E0002000BF8D
:1032200000BF70472404004024080040704710B5D8
:1032300000F002F810BD00000CB5002001900090D5
:103240003348006840F480303149086000BF30489E
:10325000006800F4003000900198401C0190009834
:1032600018B90198B0F5A06FF1D12948006800F4B1
:10327000003010B10120009001E000200090009883
:10328000012843D12348006840F01000214908601C
:103290000846006820F0070008600846006840F013
:1032A000020008601A4840681949486008464068AA
:1032B00048600846406840F48060486008464068BE
:1032C00020F47C1048600846406840F4E8104860EC
:1032D0000846006840F08070086000BF0C48006835
:1032E00000F000700028F9D00948406820F0030081
:1032F000074948600846406840F00200486000BF47
:103300000348406800F00C000828F9D10CBD00000B
:10331000001002400020024010B500280ADD021E05
:1033200001DB134600E05342154C23800022231F8B
:103330001A800AE00022124B1A80021E01DB13469B
:1033400000E053420E4C241F238000290BDD0A1E8F
:1033500001DB134600E05342094C241D2380002268
:10336000231D1A800BE00022054B1B1D1A800A1E2C
:1033700001DB134600E05342014C0834238010BDAA
:1033800038340140042808D14FF0E021096941F0A8
:1033900004014FF0E022116107E04FF0E0210969DC
:1033A00021F004014FF0E0221161704770470000E6
:1033B00010B51348006840F0010011490860084644
:1033C0004068104908400E494860084600680E49A8
:1033D00008400B4908600846006820F48020086017
:1033E0000846406820F4FE0048604FF41F008860E3
:1033F000FFF71DFF4FF000600449086010BD00009A
:10340000001002400000FFF8FFFFF6FE08ED00E0AC
:10341000F0B50C46154600220021068C4FF6FE77CB
:103420003E400684028B018C4FF60C7632407E1CA7
:1034300006EA03162E433243104EB0420ED0104E11
:10344000B0420BD0B0F1804F08D00E4EB04205D044
:103450000D4EB04202D00D4EB04206D14FF6FD7671
:10346000314044F00106314305E04FF6F576314036
:1034700044F00106314302830184F0BD002C014079
:10348000003401400004004000080040000C0040EF
:10349000F0B50C461546002200210026078C4FF699
:1034A000EF7C07EA0C070784028B018C4FF6FF774D
:1034B00007EA041640F6FF473A404FF6FF7707EA5F
:1034C00003373A434FF6FF7707EA05273A43114F90
:1034D000B8420ED0104FB8420BD0B0F1804F08D098
:1034E0000E4FB84205D00E4FB84202D00D4FB84231
:1034F00006D14FF6DF77394046F01007394305E033
:103500004FF65F77394044F0100739430283018456
:10351000F0BD0000002C01400034014000040040D8
:1035200000080040000C0040F0B50C461546002293
:1035300000210026078C4FF6FF6C07EA0C07078472
:10354000828B018C4FF6FF7707EA04264FF60C7743
:103550003A404FF6FF7707EA03172F433A43114FDC
:10356000B8420ED0104FB8420BD0B0F1804F08D007
:103570000E4FB84205D00E4FB84202D00D4FB842A0
:1035800006D14FF6FF57394046F48077394305E0BE
:103590004FF2FF57394044F48077394382830184E6
:1035A000F0BD0000002C0140003401400004004048
:1035B00000080040000C0040F0B50C461546002203
:1035C00000210026078C4EF6FF7C07EA0C070784D3
:1035D000828B018C4FF6FF7707EA043640F6FF47EF
:1035E0003A404FF6FF7707EA05273A434FF6FF7751
:1035F00007EA03373A43114FB8420ED0104FB84292
:103600000BD0B0F1804F08D00E4FB84205D00E4F0E
:10361000B84202D00D4FB84206D14DF6FF7739407F
:1036200046F48057394305E047F6FF57394044F4E4
:103630008057394382830184F0BD0000002C014093
:10364000003401400004004000080040000C00402D
:10365000044800880348008820F0010001490880E0
:1036600070470000100400400448008803480088A8
:1036700020F0010001490880704700001008004058
:1036800021B1028842F08002028004E002884FF6F5
:103690007F731A4002807047CA430282704721B18B
:1036A000028842F00102028004E002884FF6FE73B5
:1036B0001A400280704731B1B0F8442042F4004211
:1036C000A0F8442005E0B0F84420C2F30E02A0F8B0
:1036D0004420704710B504466848844208D101214F
:1036E000C014FFF7C9FB0021E014FFF7C5FBC4E0DD
:1036F000B4F1804F08D101210846FFF79DFB00215E
:103700000120FFF799FBB8E05D48844208D1012110
:103710000220FFF791FB00210220FFF78DFBACE0B8
:103720005848844208D101210420FFF785FB00217D
:103730000420FFF781FBA0E05348844208D1012117
:103740000820FFF779FB00210820FFF775FB94E0C4
:103750004E48844208D101211020FFF76DFB002163
:103760001020FFF769FB88E04948844208D1012115
:103770002020FFF761FB00212020FFF75DFB7CE0AC
:103780004448844208D101214014FFF775FB002111
:103790006014FFF771FB70E03F48844209D10121BA
:1037A000C804FFF769FB00214FF40020FFF764FB1A
:1037B00063E03A48844209D101210805FFF75CFB28
:1037C00000214FF48010FFF757FB56E03448844245
:1037D00009D101214805FFF74FFB00214FF40010EC
:1037E000FFF74AFB49E02F48844208D101214020DD
:1037F000FFF722FB00214020FFF71EFB3DE02A4897
:10380000844208D101218020FFF716FB002180208F
:10381000FFF712FB31E02548844208D101218015D1
:10382000FFF70AFB0021A015FFF706FB25E0204863
:10383000844209D101210804FFF71EFB00214FF447
:103840008030FFF719FB18E01A48844209D10121A2
:103850004804FFF711FB00214FF40030FFF70CFB89
:103860000BE01548844208D101218804FFF704FBCE
:1038700000214FF48020FFF7FFFA10BD002C01401B
:103880000004004000080040000C00400010004010
:103890000014004000340140004C01400050014041
:1038A0000054014000180040001C0040002000406F
:1038B000004001400044014000480140F0B50C4682
:1038C00015461E460021002200230189028B038C2D
:1038D0004FF6F877394021434FF6FC473A4040F223
:1038E00001173A434FF6DD773B404FF6FF7707EA83
:1038F00006172F433B43018102830384F0BD000080
:1039000070B505460C46244885420ED023488542B2
:103910000BD0B5F1804F08D02148854205D0214811
:10392000854202D02048854200D100E000BF2088B7
:1039300050B92389A28861882846FFF769FDE1888C
:10394000284600F0A2F925E0208804280AD123891E
:10395000A28861882846FFF79BFDE188284600F091
:103960009DF917E0208808280AD12389A288618858
:103970002846FFF7D9FDE188284600F09CF909E0C8
:103980002389A28861882846FFF716FEE188284629
:1039900000F09AF970BD0000002C01400034014095
:1039A0000004004000080040000C0040002101809D
:1039B0004180012181800021C180018170471AB1BD
:1039C00083890B43838102E083898B438381704722
:1039D00070B5002400220023058C4FF6FE7635409A
:1039E0000584028C8388048B4FF68F752C40B51E9E
:1039F0002C400D882C43751E2A400D892A434D8882
:103A00002A43144DA8420BD0134DA84208D0134DA1
:103A1000A84205D0124DA84202D0124DA84213D19F
:103A20004FF6F7752A404D892A434FF6FB752A4019
:103A30008D882A434FF6FF652B404FF6FF552B40EC
:103A40008D892B43CD892B4383800483CD88858644
:103A5000028470BD002C0140003401400040014050
:103A600000440140004801400A460021018B4FF606
:103A7000F7731940114301837047000070B50024AB
:103A800000220023058C4FF6EF7635400584028C2A
:103A90008388048B48F6FF752C404FF6FF452C4079
:103AA0000D884FF6FF7606EA05252C434FF6DF75A5
:103AB0002A400D8906EA05152A434D8806EA0515B0
:103AC0002A43154DA84202D0144DA8421DD14FF6ED
:103AD0007F752A404D894FF6FF7606EA05152A4381
:103AE0004FF6BF752A408D8806EA05152A434FF622
:103AF000FF352B404FF2FF752B408D8906EA850577
:103B00002B43CD8906EA85052B4383800483CD882A
:103B10000587028470BD0000002C01400034014084
:103B20000A460021018B4FF2FF7319404FF6FF73D5
:103B300003EA0223194301837047000070B5002493
:103B400000220023058C4FF6FF6635400584028C69
:103B50008388848B4FF68F752C404FF6FC752C4074
:103B60000D882C434FF6FF552A400D894FF6FF76FE
:103B700006EA05252A434D8806EA05252A43154D00
:103B8000A84202D0144DA8421DD14FF2FF752A4021
:103B90004D894FF6FF7606EA05252A434FF6FF3595
:103BA0002A408D8806EA05252A434EF6FF752B40EC
:103BB0004DF6FF752B408D8906EA05152B43CD89FF
:103BC00006EA05152B4383808483CD88858702848C
:103BD00070BD0000002C0140003401400A46002165
:103BE000818B4FF6F77319401143818370470000B2
:103BF00070B5002200230024058C4EF6FF76354078
:103C00000584038C8488828B48F6FF752A404FF622
:103C1000FF452A400D884FF6FF7606EA05252A4320
:103C20004DF6FF752B400D8906EA05352B434D886F
:103C300006EA05352B430B4DA84202D00A4DA84297
:103C400008D14BF6FF752C408D894FF6FF7606EABA
:103C500085152C4384808283CD88A0F8405003844E
:103C600070BD0000002C0140003401400A460021D4
:103C7000818B4FF2FF7319404FF6FF7303EA022363
:103C800019438183704781847047028B4FF6F37329
:103C90001A400283028B0A4302837047028B4FF261
:103CA000FF331A400283028B4FF6FF7303EA0123AE
:103CB0001A4302837047828B4FF6F3731A40828354
:103CC000828B0A4382837047828B4FF2FF331A4004
:103CD0008283828B4FF6FF7303EA01231A438283A8
:103CE00070470000002202881D4B98420ED01D4BE9
:103CF00098420BD0B0F1804F08D01B4B984205D0B2
:103D00001A4B984202D01A4B984204D14FF68F7347
:103D10001A404B881A43174B984207D0164B9842CB
:103D200004D04FF6FF431A40CB881A4302808B8899
:103D300083850B8803850A4B98420BD0094B984228
:103D400008D00E4B984205D00D4B984202D00D4B37
:103D5000984201D10B7A03860123838270470000C9
:103D6000002C0140003401400004004000080040E5
:103D7000000C0040001000400014004000400140D2
:103D800000440140004801404FF6FF71818000214E
:103D90000180C180418001727047000010B500248D
:103DA00040F22551054800F034F830B1034800F0E6
:103DB000EBF8C4B2204600F003F810BD0038014013
:103DC00010B5044600BF8021044800F015F8002813
:103DD000F9D02146014800F0DCF810BD0038014060
:103DE00021B1828942F40052828104E082894DF639
:103DF000FF731A408281704702460020B1F5007FB0
:103E000000D100BF13880B400BB1012000E000205F
:103E1000704770B50246002400230025002040F6BC
:103E20006A16B14200D100BFC1F3421501F01F0371
:103E3000012606FA03F3012D02D19689334006E0EC
:103E4000022D02D1168A334001E0968A33400C12CB
:103E5000012606FA04F41688344013B10CB101208F
:103E600000E0002070BDF0B50346002400260025C8
:103E7000002040F66A17B94200D100BF1846C1F3CE
:103E8000421401F01F06012707FA06F5012C01D1A3
:103E90000C3004E0022C01D1103000E014301AB1D3
:103EA00007682F43076002E00768AF430760F0BD73
:103EB0002DE9F04786B005460E460024A24600BF15
:103EC000A1460027B08900B100BF2F462C8A4CF6CE
:103ED000FF700440F08804432C82AC894EF6F31046
:103EE0000440B08831890843718908430443AC8198
:103EF000AC8A4FF6FF400440B0890443AC8201A86D
:103F0000FEF7CAFF1F48874202D1DDF810A001E08A
:103F1000DDF80CA0A88900F4004040B10AEBCA000B
:103F200000EB0A1031684900B0FBF1F807E00AEB3A
:103F3000CA0000EB0A1031688900B0FBF1F8642078
:103F4000B8FBF0F004012009642101FB1089A88965
:103F500000F4004040B1322000EBC900B0FBF1F0AA
:103F600000F00700044308E0322000EB0910642150
:103F7000B0FBF1F000F00F0004432C8106B0BDE867
:103F8000F08700000038014001468888C0F308002F
:103F90007047C1F308028280704700BFFEE7490006
:103FA00050EAC12018BF04204A0D18BF40F001009C
:103FB00040F2FF72B2EB515F08BF40F002000128EF
:103FC00008BF052070472DE9F0414F1E00EBC701E7
:103FD0000446D1E9000115461E4637F006020DD011
:103FE0002A46334603F0C6FA7F1E04EBC703D3E923
:103FF000002303F06FF837F00602F1D1022F25D02D
:10400000042F13D0062F18BFBDE8F0812A4633468F
:1040100003F0B0FAD4E90A2303F05CF82A463346E9
:1040200003F0A8FAD4E9082303F054F82A463346EB
:1040300003F0A0FAD4E9062303F04CF82A463346ED
:1040400003F098FAD4E9042303F044F82A463346EF
:1040500003F090FAD4E9022303F03CF82A463346F1
:1040600003F088FAD4E90023BDE8F04103F032B848
:10407000012204F02CB903F02DB80022134610469B
:10408000114603F0E3B80000024A0020110704F0D3
:104090001EB9000001FDFFFF30380A2801D20120BF
:1040A00070470020704700BF704700002DE9FE4FA9
:1040B000074688460026684601F094FA002444E04A
:1040C00057F8240058F82410A0EB010ABAF1000FA9
:1040D00001DB514601E0CAF10001084603F0F0FEA1
:1040E00083464FF08F4103F0B9FD81465DF824000F
:1040F000002103F075FE18D05DF82410484603F047
:10410000ADFD82464FF07E5104F038F8054600BF01
:1041100025F0004082460F48416A504603F0FCFFFC
:1041200012D20120A04006430EE00A48C169484669
:1041300003F0F2FE05D30748016A484603F0ECFF9E
:1041400002D20120A0400643641C032CB8DB304699
:10415000BDE8FE8F3C8400082DE9F04D8D4F21F025
:10416000004A86B005460C46BA452ADBAAEB070092
:1041700028430AD08848824501DC1AD1CDB106B067
:104180002846BDE8F04DFFF773BF844A844B2846AC
:1041900003F0F0F907460E46824A834B2846214633
:1041A00003F0E8F906B03A463346BDE8F04D02F0B8
:1041B00091BF0120FCF7E3F906B0BDE8F04DFFF731
:1041C0005CBF7A48824542DABAF1795F0BDA284659
:1041D000FFF7E5FE042808BFFFF756FF284606B0A4
:1041E0002146BDE8F08D2A460B46104603F0C2F981
:1041F000834602466E480E460B4606217844FFF77A
:10420000E2FE5A46334603F0B5F9804669488A46CD
:104210005A46334604217844FFF7D5FE5A463346C2
:1042200003F0A8F900223B4602F054FF02460B4679
:104230004046514603F00AF82A46234603F09AF90D
:1042400006B02A462346BDE8F04D02F043BF28469B
:1042500024F0004100223D463B4603F089FA4FF02E
:10426000FF3204F034F80646024653480F460B4628
:1042700006217844FFF7A7FE32463B4603F07AF961
:10428000CDE900014D4832463B4604217844FFF712
:104290009AFE32463B4603F06DF900222B4602F0AF
:1042A00019FF834602913046394602F055FE80469A
:1042B00043480D46504517DCDDE900015A46029B94
:1042C00002F0C4FF42462B4603F054F942462B4607
:1042D00002F000FF012203F0FAFF304A304B03F0F6
:1042E00039FB304A304B4CE04FF0000A52460B4647
:1042F000404602F0EFFECDE9031052462B46104631
:10430000194603F037F932463B4603F031FADDE94E
:10431000033202F09BFF06460F46DDE900015A46D4
:10432000029B02F093FF83460091012230463946FA
:1043300003F0CDFF194A1A4B03F01AFA06460F464E
:1043400001224046294603F0C2FF5A46009B03F073
:1043500011F932463B4603F0FDFA06460F460122AC
:104360005046294603F0B3FF0E4DDFF858802A4629
:10437000434603F0FDF932463B4603F0F9F92A467D
:10438000434603F0F5F9002CD8BF81F0004106B098
:10439000BDE8F08D0000F03F0000F07F075C1433B3
:1043A00026A6913C182D4454FB21F93F0000E03F24
:1043B000604E0000764E0000EA4D0000004E000006
:1043C0003333EF3FFB21E93F2DE9F84F04460D461B
:1043D00021F0004000917349814211DC724988420A
:1043E00001DC06D12CB120462946BDE8F84FFFF785
:1043F0003FBE6E48002DCCBF6D496E49BDE8F88FB9
:104400006D49814211DD6D498142D8BF4FF0FF36C1
:104410006DDD20462946FFF7C2FD042808BFFFF7DF
:1044200033FE20462946BDE8F88F6549654F25F0E3
:104430000045814233DD6449814219DD0026324660
:104440004FF080432046294602F044FE80468A46CB
:1044500001222046294603F03AFF00223B4603F0A2
:1044600079FA4246534602F0F1FE04460D463EE01C
:1044700001260022BA463B462046294602F02AFE83
:1044800080460F46002253462046294603F062FA32
:1044900042463B4602F0DAFE04460D4627E04B4911
:1044A00081421BDDDFF828A1022600225346204668
:1044B000294603F05FF800223B4602F00BFE8046DF
:1044C0000F46002253462046294603F043FA42464F
:1044D0003B4602F0BBFE04460D4608E0032622469A
:1044E0002B4600203B4902F0B1FE04460D46224611
:1044F0002B461046194603F03DF88B46824602468D
:104500000B4603F037F807460246334888460B4609
:1045100006217844FFF757FD52465B4603F02AF820
:1045200082462E488B463A46434605217844FFF79B
:104530004AFD3A46434603F01DF802460B46002E5C
:10454000504659460CDA02F0C5FD22462B4603F0D0
:1045500011F801B022462B46BDE8F04F03F008B930
:1045600002F0B8FD22462B4603F004F81C4A7A44B8
:1045700002EBC603D3E9002303F0ECF922462B46F5
:1045800003F0E8F9174A7A4402EBC603D3E90023A3
:1045900003F0EEF8009A002AB8BF81F00041BDE8B0
:1045A000F88F0000000010440000F07F182D4454E4
:1045B000FB21F93FFB21F9BF0000DC3F0000203E5A
:1045C0000000F33F0000F03F0000E63F00800340A2
:1045D0000000F83F0000F0BF024C0000C04B00009C
:1045E0005E4B0000264B00002DE9F04D9446CCF1C7
:1045F000000423F000464CEA0404594F46EAD47400
:104600009A46884621F00042BC4206D8454240EA1C
:10461000050442EAD474BC4204D9BDE8F04D6246B8
:10462000FFF729BDAAF14055A5F17F6555EA0C04B5
:104630000BD0022404EAAA744A4DDFF82CE144EAC4
:10464000D87452EA000B04D00CE0BDE8F04DFFF73F
:10465000BBBE002C14BF012CBDE8F08D022C30D065
:10466000032C32D056EA0C0B0AD0BE4220D1BA42FB
:1046700009D126F0804622F080423346114617E0E9
:1046800000291ADB25E0DFF8E4B0FB44002C04BF6E
:10469000DBE90001BDE8F08D012C02BFDBE9000180
:1046A00081F00041BDE8F08D022C0AD0032C0CD023
:1046B000BA4212D1B8F1000F0BDA2A482C49BDE8F2
:1046C000F08D28462B49BDE8F08D28467146BDE89F
:1046D000F08D24482849BDE8F08D921B12153C2A24
:1046E000C4BF204F244E10DCBAF1000FBEBF12F140
:1046F0003C0F00273E4608DB624602F0A7FD21F092
:104700000041FFF761FE07460E4694B1012C08BF39
:1047100086F000460DD0194A194B022C3846314616
:1047200015D003F017F92A46BDE8F04D114B03F000
:1047300011B9002213463846314602F0DFFE04BFAD
:104740000220FBF71CFF38463146BDE8F08D03F030
:1047500001F92A46BDE8F04D064B03F009B8000008
:104760000000F07F182D4454FB2109C0BA4A000014
:10477000FB21F9BFFB210940FB21F93F075C143302
:1047800026A6A13C10B50220FDF780F90220FDF716
:10479000A9FD0120FDF7A6FDFEF7ACF84FF4E130CE
:1047A00002F000FCFDF78EF8FDF700F800214FF451
:1047B0003460FDF711F8FDF721FAFDF76DFA10BD31
:1047C0002DE9F04F89B00446E0680890E069079051
:1047D000266A002006900021304603F001FB19D024
:1047E0003146079803F03AFA019003F09DF9CDE9BC
:1047F0000201FFF7E9FD0022314BCDE9040102F08F
:10480000B9FE07462F4A304B02F020FD824602F0E7
:104810002FFC06900021304603F07EFB07D20021DA
:10482000069803F079FC02D2284806900BE000219C
:10483000304603F071FB06D20021069803F06CFBB2
:1048400001D223480690089803F06EF9074600222B
:10485000204B02F0FBFC82468B461F48006803F0A9
:1048600063F952465B46CDE9020102F033FCCDE923
:10487000040102F0FDFB8146484603F055F9074666
:10488000164A174B02F076FE82468B46069803F0D6
:104890004BF90746134A144B02F06CFE52465B4636
:1048A000CDE9020102F016FCCDE9040102F0E0FBC3
:1048B000054609490D60284609B0BDE8F08F0000A3
:1048C00000806640182D4454FB2109400000B4C20A
:1048D0000000B44200C7BA4004000020CDCCCCCCCC
:1048E000CCCCEC3F9A9999999999B93F2DE9F0412F
:1048F0000446E07800F0C006E07800F03F056078FC
:1049000000F0010098B1EF102846E91705EB51714E
:10491000C910A5EBC101491C01F0FF080B48006854
:1049200020B10A48414602683846904700BF607887
:1049300000F0080030B10548406818B1B011034AD2
:10494000516888470020BDE8F0810000F401002094
:1049500010B50E4800680E49B0FBF1F0C4B26FF01C
:104960000400FEF70FFDE11704EB5171C910094A6D
:1049700011701046007800EB4001C1EBC0104FF6FB
:10498000FF7101EAC0000449088010BD0800002042
:1049900040420F00340000203600002001460D4A3E
:1049A00012884A434FF0E0235A6100229A610122A3
:1049B0001A6100BF4FF0E022106900F001021AB145
:1049C00000F48032002AF5D000224FF0E0231A6173
:1049D0009A6170473600002001460D4A12784A431A
:1049E0004FF0E0235A6100229A6101221A6100BF50
:1049F0004FF0E022106900F001021AB100F4803299
:104A0000002AF5D000224FF0E0231A619A61704726
:104A10003400002038B5044664B120208DF8000031
:104A200028208DF8010030208DF8020038208DF804
:104A3000030004E0A32204216846FBF718FD6A4640
:104A4000042140F69E2002F055F901F045FD38BDE5
:104A50003EB5044602208DF80000CA208DF8010002
:104A6000E3208DF8020009208DF803006A46042136
:104A7000682002F03FF9A3208DF8000004F0400008
:104A800048B1C0208DF80100C8208DF80200C22076
:104A90008DF8030006E0A3208DF801008DF80200D8
:104AA0008DF8030004F4C07048B1C4208DF80400F0
:104AB000CC208DF80500C6208DF8060006E0A32066
:104AC0008DF804008DF805008DF80600A3208DF800
:104AD00007008DF808008DF809006A460A2140F6A3
:104AE000A72002F007F904F0030018B120208DF888
:104AF000000002E0D8208DF800006A46012140F64F
:104B0000B62002F0F7F804F0200018B1012000F000
:104B1000ADF802E0002000F0A9F804F4C07008B37A
:104B200004F4807060B1B2208DF800008B208DF805
:104B30000100B6208DF802009B208DF803000BE0E9
:104B4000B0208DF8000080208DF80100B4208DF891
:104B5000020090208DF803006A46042140F6A2204E
:104B600002F0C8F804F0010020B3F8208DF800002E
:104B70006A4601214FF40B6002F0BCF8FA210720CD
:104B800000F02CFC072000F0F3FB012000F013FCE8
:104B9000642000F0F3FC4FF4FA7000F002FDC8212D
:104BA000304800F0A3FB282000F0BCFB0A2000F0F6
:104BB000CCFB08E0D8208DF800006A4601214FF4B4
:104BC0000B6002F097F804F0020018B1D9208DF8BC
:104BD000000002E0D8208DF800006A46012140F272
:104BE0003D7002F087F804F0040018B1012000F0D5
:104BF00069F802E0002000F065F804F0100018B138
:104C00000120FFF707FF02E00020FFF703FF44F059
:104C100008001549488101F05FFC002012498873A3
:104C200004F0400018B10846807B801D887304F4AE
:104C3000C07020B10C48807B801D0B49887304F044
:104C4000140020B10848807B10300749887304F0B5
:104C5000030020B10448807B001D034988730020B5
:104C60003EBD000009E3CA02F40100203EB504463F
:104C70006CB10EA1D1E900208968CDE90020029134
:104C80006A4609214FF4976002F034F83EBD0AA24B
:104C9000D2E900109268CDE9010200916A4609212B
:104CA0004FF4976002F026F8F0E70000B8AAB38D41
:104CB000B4980D355D000000B8AAAAAAB088C3C593
:104CC000C700000038B5044664B1C0208DF800006C
:104CD000C2208DF80100C4208DF80200C6208DF896
:104CE000030004E08B2204216846FBF7C0FB6A4600
:104CF000042140F6982001F0FDFF01F0EDFB38BDE6
:104D000010B5C8234FF48062024940F6F63001F036
:104D100077FA10BD648400082DE9F04F8DB0074686
:104D2000884615469946DDE9166B00240020308040
:104D30006B49887B5A4605A901F02EFB18B1601E0D
:104D40000DB0BDE8F08F6648807A00F014000028AE
:104D500067D09DF8140000069DF8151040EA014048
:104D60009DF8161040EA01209DF8171008432860AE
:104D70009DF8180000069DF8191040EA01409DF8C2
:104D80001A1040EA01209DF81B10084368609DF846
:104D90001C0000069DF81D1040EA01409DF81E1001
:104DA00040EA01209DF81F100843A8609DF82000EC
:104DB00000069DF8211040EA01409DF8221040EACB
:104DC00001209DF823100843E86004F11000C4B2EC
:104DD000286800140190686800140290A868001404
:104DE0000390E8680014049001984043029901FB85
:104DF0000100039901FB0100049901FB010ABAF1CA
:104E0000706F02DBBAF1885F05DD01F065FB002001
:104E10003080401E94E7B6F9000040F48070308086
:104E200000BF2F48807A00F0400020B305A9601C25
:104E3000085C095D40EA012000B2A8F8000005A95D
:104E4000E01C095C05AAA01C105C41EA002000B22D
:104E5000A8F8020005A9601D095C201D105C41EA4C
:104E6000002000B2A8F80400A01DC4B2B6F90000EA
:104E700040F0080030801A48408900F4C07008B340
:104E800005A9601C085C095D40EA012000B2388079
:104E900005A9E01C095C05AAA01C105C41EA0020E1
:104EA00000B2788005A9601D095C201D105C41EAF4
:104EB000002000B2B880A01DC4B2B6F9000040F0D6
:104EC000700030800648807A00F0030018B105A910
:104ED0000819FFF70BFD484601F0ACFF00202FE753
:104EE000F401002070B588B0064601A800F0DCFF90
:104EF000BDF804000021C90341EA5045C4034448F9
:104F0000007A00F0030056F8200005904048007A2F
:104F100000F0040010B10598404205903C48007A2A
:104F2000C0F3C10056F8200006903948007A00F01E
:104F3000200010B10698404206903548007AC0F330
:104F4000811056F8200007903148008900F48070E5
:104F500010B10798404207900598C117A0FB0423A1
:104F600001FB043100FB0510810041EA92700590BD
:104F70000698C117A0FB042301FB043100FB0510B8
:104F8000810041EA927006900798C117A0FB0423A4
:104F900001FB043100FB0510810041EA927007908B
:104FA0000598000E8DF808000598000C8DF8090092
:104FB0000598000A8DF80A000598C0B28DF80B001C
:104FC0000698000E8DF80C000698000C8DF80D0068
:104FD0000698000A8DF80E000698C0B28DF80F00F2
:104FE0000798000E8DF810000798000C8DF811003E
:104FF0000798000A8DF812000798C0B28DF81300C8
:1050000002AA0C214FF4257001F074FE08B070BDA7
:10501000F401002030B585B0044616A207CA02ABE1
:1050200007C3C82C03DD4FF0FF3005B030BDC820EA
:1050300090FBF4F0401E85B2280A8DF80000E8B21B
:105040008DF801006A46022140F2162001F052FE5E
:1050500010B14FF0FF30E8E702AA0C2140F6C12062
:1050600001F048FE10B14FF0FF30DEE704488481C4
:105070000020DAE7FEF2ABC4AAF1DFDFBBAFDFDF6F
:10508000F40100201FB504464848007A00F00300F0
:1050900054F8200001904548007A00F0040010B157
:1050A0000198404201904148007AC0F3C10054F891
:1050B000200002903D48007A00F0200010B10298D4
:1050C000404202903948007AC0F3811054F8200021
:1050D00003903648008900F4807010B10398404274
:1050E00003903349019880FB0101800F40EA810061
:1050F00001902F49029880FB0110820042EA9170D2
:1051000002902B49039880FB0110820042EA9170C3
:1051100003900198000E8DF800000198000C8DF8A6
:1051200001000198000A8DF802000198C0B28DF8C4
:1051300003006A4604214FF4747001F0DBFD18B1DE
:105140004FF0FF3004B010BD0298000E8DF8000043
:105150000298000C8DF801000298000A8DF80200F8
:105160000298C0B28DF803006A4604214FF47570AE
:1051700001F0C0FD10B14FF0FF30E3E70398000EDF
:105180008DF800000398000C8DF801000398000AC8
:105190008DF802000398C0B28DF803006A4604211E
:1051A0004FF4767001F0A6FDCCE70000F40100207A
:1051B00009E3CA0210B586B0044647A00068039010
:1051C00046A00068029046A00068019045A00068D3
:1051D000009004F0030003A9085C8DF8140003A8F4
:1051E000C4F3C101405C8DF8150003A8C4F381111C
:1051F000405C8DF8160004F0030002A9085C8DF8ED
:10520000100002A8C4F3C101405C8DF8110002A88F
:10521000C4F38111405C8DF8120005AA032140F20D
:10522000264001F067FD18B14FF0FF3006B010BD09
:1052300004AA032140F22A4001F05CFD10B14FF0B6
:10524000FF30F3E7019805900098049004F0040003
:1052500058B19DF8140040F001008DF814009DF83D
:10526000100040F001008DF8100004F0200058B14B
:105270009DF8150040F001008DF815009DF8110013
:1052800040F001008DF8110004F4807058B19DF8D1
:10529000160040F001008DF816009DF8120040F055
:1052A00001008DF8120005AA03214FF4886001F077
:1052B00021FD10B14FF0FF30B8E704AA032140F2FE
:1052C000314001F017FD10B14FF0FF30AEE7064856
:1052D00004810020AAE700004CCD6C000CC92C0012
:1052E0003656760026466600F4010020F8B50546DD
:1052F0000E464FF47A7095FBF0F000FB06F4200E9A
:105300008DF80000200C8DF80100200A8DF80200B5
:10531000E0B28DF803006A4604214FF4AE7001F04C
:10532000E9FCF8BD38B50446052094FBF0F084B2E2
:1053300020128DF80000E0B28DF801006A460221CB
:105340004FF4AD7001F0D6FC38BD38B504460520E9
:1053500094FBF0F084B220128DF80000E0B28DF8DA
:1053600001006A4602214FF4AC7001F0C3FC38BD65
:1053700038B504460020009004F0010020B19DF8EB
:10538000000040F03000009004F0020020B19DF8D1
:10539000000040F00C00009004F0040020B19DF8E3
:1053A000000040F0030000906A4601214FF4A47011
:1053B00001F0A0FC38BD38B50446012C01DA012407
:1053C00002E0042C00DD0424601EC0B200906A4696
:1053D000012140F24F1001F08DFC38BD2DE9FC4752
:1053E00006460F4606F0070010B1B7F5C86F03DD9B
:1053F0004FF0FF30BDE8FC87384602F079FD81466A
:10540000594902F02BFC8046684600F027FD9DF8C4
:105410000000022806D0042816D0082826D010281C
:1054200048D135E04FF08D41404602F0A9FD81465C
:1054300002F026FD84B24D49404602F0A1FD8146AE
:1054400002F01EFD85B238E04FF08C41404602F07C
:1054500097FD814602F014FD84B24549404602F0B2
:105460008FFD814602F00CFD85B226E04FF08B41A6
:10547000404602F085FD814602F002FD84B23D49BE
:10548000404602F07DFD814602F0FAFC85B214E050
:105490004FF08A41404602F073FD814602F0F0FC75
:1054A00084B23549404602F06BFD814602F0E8FCCB
:1054B00085B202E04FF0FF309CE700BF20128DF86C
:1054C0000400E0B28DF8050028128DF80600E8B25D
:1054D0008DF8070006F00100A0B101AA02214FF4E7
:1054E000EA7001F007FC10B14FF0FF3082E70DF1D8
:1054F000060202214FF4927001F0FCFB10B14FF054
:10550000FF3077E706F00200A0B101AA02214FF4B4
:10551000EC7001F0EFFB10B14FF0FF306AE70DF1D6
:10552000060202214FF4947001F0E4FB10B14FF039
:10553000FF305FE706F00400A0B101AA02214FF49A
:10554000EE7001F0D7FB10B14FF0FF3052E70DF1D4
:10555000060202214FF4967001F0CCFB10B14FF01F
:10556000FF3047E7002045E7000048430000404681
:105570000000C045000040450000C04438B5044666
:10558000052094FBF0F085B228128DF80000E8B2F7
:105590008DF801006A4602214FF4EF7001F0AAFB7A
:1055A00038BD38B50446052094FBF0F085B22812CA
:1055B0008DF80000E8B28DF801006A4602214FF430
:1055C000ED7001F097FB38BD00BF054A128802F06C
:1055D0004002002AF9D0C2B2014B1B1D1A8070474D
:1055E000003801407CB5054628494968087801AB78
:1055F00004220D2100F012FB08B107207CBD9DF8AC
:105600000700C0F301109DF8041001F0E00140EA2A
:10561000E1008DF800009DF80700C0F381009DF8BF
:10562000051001F0E00140EAE1008DF801009DF86D
:10563000070000F003009DF8061001F0E00140EAC9
:10564000E1008DF8020000241CE01DF8040018B9E8
:10565000002045F8240013E00D4845F8240006E03A
:1056600055F824000B4902F08BFC45F824001DF886
:105670000400401EC0B20DF804000028F0D100BFA5
:10568000601CC4B2032CE0DB0020B7E7CC00002094
:105690007B14AE3E1D5A843F2DE9F04F87B005467E
:1056A0000C46914601208DF8100000208DF8110065
:1056B000FE4A1268917CFD4A5268107804AB0222BF
:1056C00000F0E7FA20B14FF0FF3007B0BDE8F08FEF
:1056D000C820FFF763F900208DF81000F34A126824
:1056E000D17BF24A5268107804AB012200F0D1FA63
:1056F00010B14FF0FF30E8E7EC4A12685179EB4AFD
:105700005268107804AB012200F0C3FA10B14FF0D8
:10571000FF30DAE7E54A1268917CE44A5268107873
:1057200004AB012200F0B5FA10B14FF0FF30CCE726
:10573000DE4A1268D17DDD4A5268107804AB01223E
:1057400000F0A7FA10B14FF0FF30BEE7D74A126859
:105750001179D64A5268107804AB012200F099FA08
:1057600010B14FF0FF30B0E70C208DF81000CF4A99
:1057700012681179CD4A5268107804AB012200F00A
:1057800088FA10B14FF0FF309FE70F20FFF706F9BE
:10579000C648806A407A8DF81000C44A1268917831
:1057A000C24A5268107804AB012200F072FA10B1BC
:1057B0004FF0FF3089E7BD48806A007A8DF810000D
:1057C000BA4A12685178B94A5268107804AB01227B
:1057D00000F05FFA10B14FF0FF3076E7B9F1000F3B
:1057E00007D0B248806A807A40F0E0008DF810005F
:1057F00004E0AE48806A807A8DF81000AB4A1268E7
:105800009179AA4A5268107804AB012200F041FA5B
:1058100010B14FF0FF3058E7B9F1000F07D0A3489F
:10582000806AC07A40F0E0008DF8100003E0A048E4
:10583000C07A8DF810009D4A1268D1799B4A52684F
:10584000107804AB012200F024FA10B14FF0FF30C1
:105850003BE7B9F1000F02D0C820FFF79FF84020C6
:105860008DF81000914A12681179904A52681078A8
:1058700004AB012200F00DFA10B14FF0FF3024E725
:1058800078208DF81000894A12685179874A526849
:10589000107804AB012200F0FCF910B14FF0FF309A
:1058A00013E783498889FFF779F800208DF8100005
:1058B0007E4A126851797D4A5268107804AB012201
:1058C00000F0E7F910B14FF0FF30FEE6774A1268BA
:1058D000917A764A5268107804AB022200F09EF961
:1058E00010B14FF0FF30F0E69DF811009DF8101058
:1058F00040EA012B0C209BFBF0F0C6B20020A86010
:1059000068602860A06060602060824665E0674A49
:105910001268D17A654A5268107804AB0C2200F004
:105920007DF910B14FF0FF30CFE69DF811009DF8E2
:10593000101040EA012000B2ADF808009DF81300F5
:105940009DF8121040EA012000B2ADF80A009DF85F
:1059500015009DF8141040EA012000B2ADF80C00CB
:10596000BDF90810206808442060BDF90A1060687D
:1059700008446060BDF90C10A0680844A0609DF860
:1059800017009DF8161040EA012000B2ADF80000A3
:105990009DF819009DF8181040EA012000B2ADF8FA
:1059A00002009DF81B009DF81A1040EA012000B289
:1059B000ADF80400BDF90010286808442860BDF95E
:1059C0000210686808446860BDF90410A8680844BB
:1059D000A8600AF1010000F0FF0AB24597DB3448E5
:1059E000D0F800C02868C117090441EA1041070433
:1059F000624600233846FAF71AFC32460023CDE906
:105A00000201FAF714FC28602948D0F800C0686841
:105A1000C117090441EA10410704624600233846D1
:105A2000FAF705FC32460023CDE90201FAF7FFFB45
:105A300068601F48D0F800C0A868C117090441EA8F
:105A400010410704624600233846FAF7F0FB32465D
:105A50000023CDE90201FAF7EAFBA8601448D0F868
:105A600004C02068C117090441EA104107046246D6
:105A700000233846FAF7DBFB32460023CDE902016A
:105A8000FAF7D5FB20600A48D0F804C06068C11757
:105A9000090441EA10410704624600233846FAF738
:105AA000C6FB32460023CDE9020103E0CC00002012
:105AB0003C840008FAF7BBFB60601148D0F804C0D2
:105AC000A068C117090441EA104107046246002397
:105AD0003846FAF7ACFB32460023CDE90201FAF76B
